:020000040800F2
:100000003006002001010008F727000899250008A4
:10001000F5270008910700088D2D0008000000005A
:10002000000000000000000000000000FD270008A4
:10003000FB08000800000000F9270008FF2700085F
:100040001B0100081B0100081B0100081B01000820
:100050001B010008FB2700081B010008130900080A
:10006000190900081B0100081B010008C508000849
:100070001B0100081B0100081B0100081B010008F0
:100080001B0100081B010008410600081B010008B5
:100090001B0100081B0100081B0100081B010008D0
:1000A0001B0100081B0100081B010008652800084F
:1000B0001B010008712800087D2800081B010008AA
:1000C0001B0100081B0100081B0100081B010008A0
:1000D0001B0100081B010008DD2C00081B010008A3
:1000E000FD0800081B0100081B010008DFF80CD008
:1000F00000F084FA004800471D3100083006002057
:100100000648804706480047FEE7FEE7FEE7FEE7B1
:10011000FEE7FEE7FEE7FEE7FEE7FEE761280008F0
:10012000ED000008202A04DB203A21FA02F0002129
:10013000704721FA02F3D040C2F1200291400843F7
:1001400019467047D2B201E000F8012B491EFBD2DC
:1001500070470022F6E710B513460A4604461946D2
:10016000FFF7F0FF204610BDF0B480EA0102D40F83
:100170004200B2EB410F02D20246084611464A0045
:1001800042D0C30DDDB2C1F3C752AD1A202D35DA0E
:10019000C1F3160141F4000204B15242C5F1200638
:1001A00002FA06F12A411044B3EBD05F23D0C4B168
:1001B000012DA0EBC35009DCF0BC4FF0004202EA75
:1001C000C352DBB200F5000000F08FB9400000F12F
:1001D000807000EBC350A0F1807040EAD1704900FC
:1001E00009E0490841EAC071A0EBC35000F50000E6
:1001F000400800EBC350F0BC00F06EB96142012230
:1002000002EB4101001BF6E7F0BC704781F00041B2
:10021000AAE780F00040A7E780EA010210B502F0EB
:100220000043400022D04A001FD0010E01EB1261B2
:10023000C0F35600C2F3560240F4000042F400023C
:10024000A0FB022000047F39140400D0401C50EAB7
:10025000124001D44000491EC2B20C0604EBD0107B
:10026000401C4008802A02D003E0002010BD20F08E
:100270000100002900DA0020184310BD30B480EAE4
:10028000010202F0004530F0004221F0004013D09E
:1002900090B1C30DD40DC2F31601C0F31600E41AD9
:1002A00041F4000140F400027D34914201D3641C0A
:1002B00000E04900002C02DA30BC002070474FF407
:1002C00000000023914201D3891A034340084FEAFA
:1002D0004101F7D151B1914202D14FF0004105E007
:1002E00002D24FF0010101E06FF0010103EBC450B5
:1002F000284430BC00F0F0B82DE9F04D81EA030449
:1003000004F0004B21F0004514464FF0000A23F0A2
:10031000004150EA050220D054EA01021DD0C5F385
:100320000A570246C5F31303C1F31300C1F30A567B
:1003300040F4801543F48013A7EB0608101BD64643
:1003400008F2FD3873EB050002D308F1010801E063
:1003500092185B41B8F1000F03DA00200146BDE8B6
:10036000F08D00204FF48011064684460EE0171BE6
:1003700073EB050705D3121B63EB050306434CEA39
:10038000010C49084FEA300092185B4150EA01071E
:10039000EDD152EA030012D082EA040083EA05019B
:1003A000084305D0101BAB4106D20122002306E012
:1003B00000224FF0004302E06FF0010253101AEBED
:1003C00006004CEB085110EB0A0041EB0B01BDE8B5
:1003D000F04D00F0B8B8C10F80EAE0700844CA07D9
:1003E0009623002100F081B896230022114600F0E8
:1003F0007CB80EB540F2334102910021CDE90011E5
:100400000A460B4600F0ACF803B000BD00F0004215
:1004100020F00040C10DC0F3160040F400007F2919
:1004200001DA00207047962903DCC1F19601C8402B
:1004300001E096398840002AF4D04042704701F02C
:10044000004330B421F0004150EA010206D00A0D09
:10045000A2F56072C1F31301002A02DC30BC002057
:100460007047440F44EAC104C100E01830BC00EBFF
:10047000C25000F031B82DE9F05F054600209246E9
:100480009B4688460646814640241BE02846414656
:1004900047462246FFF746FE53465A46C01A914148
:1004A00010D311461846224600F0BAF82D1A67EB11
:1004B00001084F4622460120002100F0B1F817EB59
:1004C00000094E41201EA4F10104DFDC48463146FC
:1004D0002A464346BDE8F09F0029A8BF7047401C4C
:1004E000490008BF20F00100704710B4B0FA80FC4A
:1004F00000FA0CF050EA010404BF10BC704749B187
:10050000CCF1200421FA04F411FA0CF118BF0121F6
:1005100021430843A3EB0C01CB1D4FEA00614FEAD6
:10052000102042BF002010BC704700EBC3501044A5
:100530000029A4BF10BC7047401C490008BF20F030
:10054000010010BC704710B5002B08DA401C41F1C7
:10055000000192185B411A4301D120F0010010BD47
:100560002DE9F04D92469B4611B1B1FA81F202E0BD
:10057000B0FA80F22032904600F052F804460F465E
:1005800040EA0A0041EA0B0153465A46084313D099
:10059000114653EA010019D0C8F140025046FFF756
:1005A000C1FD05460E4650465946424600F038F811
:1005B000084305D0012004E020463946BDE8F08D0F
:1005C0000020054346EAE0762C4337430A9863054A
:1005D000E40AA0EB08000022FD0A44EA47540A306E
:1005E00002D500200146E9E7010510196941DDE95E
:1005F000084500196941BDE8F04DA4E7064C074DD8
:1006000006E0E06840F0010394E8070098471034E2
:10061000AC42F6D3FFF76EFD58340008783400087A
:10062000202A04DB203A00FA02F1002070479140B2
:10063000C2F1200320FA03F31943904070470000F1
:10064000014800F0F0B900009400002070B50446A5
:1006500000688168C943C90717D1816821F0010189
:10066000816000F081FE05460AE000BF00F07CFEDC
:10067000401B022804D920688068C043C00706D008
:1006800020688068C043C007F0D0002070BDA06A19
:1006900040F01000A062E06A40F00100E06201203A
:1006A00070BD10B50146406A826A12F0500F05D045
:1006B000006A026BBDE8104008461047816A41F4A9
:1006C0000071816201688968C1F3424107290CD138
:1006D000017B51B9816A21F480718162816AC90408
:1006E00003D4816A41F00101816200F099F910BDE3
:1006F00010B5406A816A41F040018162C16A41F0EF
:100700000401C16200F08EF910BD10B5406A00F01E
:1007100088F910BDF8B50026044600960068816887
:10072000C943C9072DD0816841F001018160164895
:1007300016490068B0FBF1F000E0401E0090002870
:10074000FBD100F011FE054616E000BF00F00CFEE4
:10075000401B022810D920688068C043C0070BD016
:10076000A06A40F01000A062E06A40F00100E06280
:1007700084F824600120F8BD20688068C043C00769
:10078000E4D10020F8BD00008C00002040420F00A2
:10079000FEE700002DE9F0411F4F204C00254FF0EF
:1007A000010800BF00F0E0FDC4F8680000F0DCFDC7
:1007B000E0662021384600F0CDFD20B9D4E91A01C9
:1007C000801C8842F2D8282002F01AFD20213846E9
:1007D00000F0C0FD0028C5F1070108FA01F019D0AA
:1007E0003043C6B200F0C0FDC4F8680000F0BCFDA4
:1007F000E0662021384600F0ADFD20B1D4E91A01B1
:10080000801C8842F2D86D1CEDB2082DCAD3304648
:10081000BDE8F0818643E5E7000C014000000020C0
:100820002DE9FF4120200127CDE900070025022006
:10083000CDE90250214E2C466946304600F09AFC24
:1008400000222021304600F08AFD142000F044FCF4
:1008500001222021304600F082FD1E2002F0D0FC53
:10086000CDE901476946304600F084FC282002F0BB
:10087000C7FC2021304600F06DFD40B9502002F049
:10088000BFFC2021304600F065FD00B1012500F0DD
:100890006BFD0B4CC4F8680000F066FDE06620219B
:1008A000304600F057FD20B1D4E91A01801C88427F
:1008B000F2D804B02846BDE8F0810000000C0140E9
:1008C00000000020014800F0F7BA0000EC01002011
:1008D00030B590F840500124AC40C56B6C600468A2
:1008E00063604368102B036803D099600068C2609E
:1008F00030BD9A600068C16030BD704710B54FF4DC
:10090000806000F02BFCBDE810404FF4006000F068
:1009100025BC022000F022BC042000F01FBC704760
:1009200070470000F8B50024009490F82420254674
:10093000012A12D0012280F824204A681F23072AA6
:100940000DD20668776B521E02EB820293409F43E2
:100950000B6893401F43776319E00220F8BD0668D7
:100960000D2A0AD2376BD21F02EB820293409F43BB
:100970000B6893401F43376309E0F76A0D3A02EBB7
:10098000820293409F430B6893401F43F7620A68BB
:10099000072306680A2A0AD3F7680A3A02EB4202DA
:1009A00093409F438B6893401F43F76008E037698B
:1009B00002EB420293409F438B6893401F43376191
:1009C0000A68102A01D0112A20D1124B02689A42DB
:1009D00017D193681B0219D4936843F40003936002
:1009E0000968102912D10C490C4A0968B1FBF2F1CF
:1009F00001EB8101490000E0491E00910029FBD173
:100A000004E0816A41F020018162012480F82450D1
:100A10002046F8BD002401408C00002040420F0019
:100A200070477047704710B50446006841688906F2
:100A300026D50168890723D5A16AC90603D4A16A0E
:100A400041F40071A1628168C1F34241072910D1CC
:100A5000217B71B9416821F020014160A06A20F436
:100A60008070A062A06AC00403D4A06A40F00100B4
:100A7000A0622046FFF7D4FF21686FF012000860E3
:100A80002068416809062ED5016849072BD5A16A5F
:100A9000C90603D4A16A41F40051A1628168C1F37F
:100AA0000231072909D04168490515D48168C1F38D
:100AB0004241072910D1217B71B9416821F08001A1
:100AC0004160A06A20F48050A062A06AC00503D4EF
:100AD000A06A40F00100A0622046FFF721FF2168D4
:100AE0006FF00C0008602068416849060DD5006869
:100AF000C0070AD0A06A40F48030A062204600F00F
:100B000093F821686FF00100086010BD2DE9F041F5
:100B10004FF0000704003D467ED0A06A002628B9A9
:100B2000E66284F82460204600F080F82046FFF753
:100B30008DFDA16A01F01001014304D0A06A40F0CC
:100B40001000A06268E0A16A21F4885141F002011E
:100B5000A1626268E169237B0A4347EA43010A43D1
:100B6000A1684FF48077B94208D0012906D000214E
:100B700094F814C0BCF1010F02D00AE03946F7E73F
:100B8000F3B1A36A43F02003A362E36A43F00103D5
:100B9000E3622368D3F804C02CF4694C4CEA010CDE
:100BA000C3F804C023689968DFF870C001EA0C013B
:100BB00011439960A168B9420BD0012909D00CE01A
:100BC000DFF85CC0A3690CEB43330B4343F40061D3
:100BD000DFE7218A0D05A5F580152168CB6A23F48E
:100BE00070032B43CB62216889680E4B19409142F8
:100BF00008D1E662A16A21F0020141F00101A1627F
:100C0000BDE8F081A06A20F0020040F01000A06270
:100C1000E06A40F00100E0620120F1E7FDF7E1FF4A
:100C200000E0FFFFFE0E1FFF7047000070B586B0AA
:100C300000260546009601960296039600681E4916
:100C4000884237D11D49886940F4007088618869FD
:100C500000F400700490886940F00400886188699D
:100C6000694600F004000490F020009003200190F9
:100C7000134800F07FFA144C1248C4E900068020A3
:100C8000C4E9026040002061800060612020A06112
:100C9000C001E061204600F0B9F908B1FFF73FFE5E
:100CA0002C62002211461220656200F0D1FB122056
:100CB00000F0C0FB06B070BD0024014000100240EF
:100CC0000008014008000240EC0100202DE9F04737
:100CD000894604463B4900683B4F0E1D90468842BA
:100CE00001D0B84207D1306810F4702F03D001252D
:100CF0002846BDE8F08794F8240001280CD0012094
:100D000084F824002046FFF705FD05004FF00000A1
:100D100004D084F82400EBE70220EAE7A16A40F659
:100D20000162914341F48071A1622168B94218D1F6
:100D3000326812F4702F14D0A16A41F48011A162BC
:100D40003168490505D5A16A21F4005141F480516B
:100D5000A162A16AC9040AD5E16A21F00601E16233
:100D600006E0A26A22F48012A2624968E9E7E06222
:100D700084F82400216A15488862216A1448C862F0
:100D8000216A1448086321686FF002000860206837
:100D9000816841F480718160216843464A464C3144
:100DA000206A00F061F920688168C1F34241072997
:100DB000816803D041F48011816099E741F4A0017A
:100DC000FAE700000024014000280140A3060008C3
:100DD0000B070008F106000810B590F8211000225A
:100DE000022905D00421816380F82020012010BD54
:100DF00001680B6823F00E030B6001680B6823F099
:100E000001030B6090F84030C46B012101FA03F339
:100E1000636080F8211080F82020104610BD00008B
:100E200010B590F821100024022903D00421816319
:100E300001243DE001680A6822F00E020A600168A0
:100E40000A6822F001020A601A4A0168914201D13F
:100E5000012121E0174A1432914201D110211BE0F7
:100E6000144A2832914201D1891515E0114A3C32C9
:100E7000914201D189140FE00E4A5032914202D1C1
:100E80004FF4803108E00B4A6432914202D14FF4B2
:100E9000801101E04FF08071064A083A516001214B
:100EA00080F82110002180F82010416B01B18847A3
:100EB000204610BD080002402DE9F05FC16B0C68B0
:100EC00001680B68D0F840C0042202FA0CF2494DC8
:100ED000DFF824A1494E4A4FDFF828B1DFF828E1B6
:100EE00022422CD05A072AD50A68920603D40A68EF
:100EF00022F004020A600168A94201D1042219E02B
:100F0000514501D1402215E0B14202D14FF4806237
:100F100010E0B94202D14FF480420BE0594502D1B2
:100F20004FF4802206E0714502D14FF4800201E0C7
:100F30004FF080622F4908394A60C16A3BE04FF0A8
:100F4000020808FA0CF818EA040F4FF000094FF0F5
:100F5000010235D05FEA837832D50B689B0605D451
:100F60000B6823F00A030B6080F821200168A94276
:100F700001D1022219E0514501D1202215E0B142F0
:100F800002D14FF4007210E0B94202D14FF4005286
:100F90000BE0594502D14FF4003206E0714502D111
:100FA0004FF4001201E04FF00072124908394A6014
:100FB00080F82090816A00291AD0BDE8F05F0847C8
:100FC000082505FA0CF5254212D01B0710D50B6831
:100FD00023F00E030B6090F84010C36B02FA01F18E
:100FE0005960826380F8212080F82090016BE2E74D
:100FF000BDE8F09F080002401C00024030000240A3
:1010000044000240580002406C00024030B528B352
:1010100008C8134914221944B1FBF2F18900C163D5
:1010200010498163022141771A6843F6F0718A43BF
:10103000D0E900142143D0E902452C43214304693F
:1010400021434469214384692143114319600021EC
:101050004163012242770177084630BD012030BD4F
:10106000F8FFFDBF0000024070B5044690F8200074
:10107000002501280CD0012084F8200094F821607C
:101080000020012E06D084F820000225284670BDDD
:10109000022070BD022684F82160A06320680668E3
:1010A00026F0010606602046FFF712FCE06A0028E1
:1010B0002068016802D041F00E0106E021F0040131
:1010C00001602068016841F00A0101602068016840
:1010D00041F001010160D9E770B5044600F044F920
:1010E0000546601C02D004480078044400F03CF936
:1010F000401BA042FAD370BD8000002010B5154AF5
:10110000154C02280ED004280BD14102104600F0E5
:1011100021F90028608818D0401E6080E088401EB9
:10112000E08010BD4FF48061104600F013F90028F4
:10113000208805D0401C2080A088401CA08010BDC5
:10114000401E2080A088401EF8E7401C6080E08898
:10115000401CE5E7000C014078000020044910B570
:101160000A68024202D00860FFF7C8FF10BD000005
:10117000140401402DE9F84FDFF8B891002409F17B
:10118000040A0AF1040B23460F270BF1040EC9E0F1
:101190000125A5402A40AA427DD1674ED1F804C05E
:1011A000ACEB0608B44532D014DCBCF1030F3AD0E6
:1011B00009DCBCF1000F2AD0BCF1010F1CD0BCF13E
:1011C000020F31D11DE0BCF1110F17D0BCF1120F8D
:1011D0002AD119E0B8F5881F19D006DCB8F5803F90
:1011E00015D0B8F5801F1FD111E0B8F5001F0ED043
:1011F000B8F5041F18D10AE0CB6815E0CB681B1DB9
:1012000012E0CB6808330FE0CB680C330CE08B683E
:101210002BB1012B4FF0080303D0456104E00423F8
:1012200002E0056100E00023FF2A01D8064601E044
:1012300000F104064FEA840501D9A5F12005D6F88E
:10124000008007FA05FC28EA0C0803FA05F548EACD
:101250000508C6F800804D68ED0062D5374DAE69CF
:1012600046F00106AE61AD6924F0030605F0010504
:101270000095334D06EB050CDCF80850A607360F39
:1012800007FA06F825EA0805DFF8B880404503D1DB
:101290004FF0000817E044E0DFF8AC80404502D191
:1012A0004FF001080FE0DFF8A480404502D14FF075
:1012B000020808E0DFF89880404502D14FF00308AB
:1012C00001E04FF0040808FA06F848EA0508CCF8EF
:1012D00008804D68D9F80060ED034D4601D51643EE
:1012E00000E096432E604D68DAF80060AD03554685
:1012F00001D5164300E096432E604D68DBF8006090
:10130000ED025D4601D5164300E096432E604D6820
:10131000DEF80060AD02754601D5164300E0964345
:101320002E60641C0D682A46E5407FF431AFBDE8AD
:10133000F88F00000004014000001110001002406E
:101340000000014000080140000C01400010014075
:10135000001401408068084000D0012070470AB1A5
:10136000016170470904FBE701488068704700008D
:101370008000002002488168027811448160704733
:1013800080000020074810B5016841F0100101609D
:10139000032000F07DF8002000F006F800F024F8AB
:1013A000002010BD0020024070B50D4D04464FF4E2
:1013B0007A712878B1FBF0F00A490968B1FBF0F0C6
:1013C00000F06AFB48B9102C07D200222146501EBB
:1013D00000F03EF800206C6070BD012070BD000080
:1013E000800000208C000020104808B5816941F081
:1013F00001018161816901F001010091C16941F040
:101400008051C161C069002200F0805000901146F7
:10141000052000F01DF8052000F00CF80448416894
:1014200021F0E06141F00071416008BD0010024010
:1014300000000140002809DB00F01F02012191405B
:101440004009800000F1E020C0F800117047000062
:10145000F0B40E4B1B680C46C3F30223C3F107051F
:10146000042D00D90425191D072901D2002300E00D
:10147000DB1E012606FA05F1491E214099409E40D7
:10148000761E16403143F0BC01F092BC0CED00E03A
:10149000064900F0070208684FF6FF03184040EACB
:1014A0000220034A10430860704700000CED00E082
:1014B0000000FA052DE9F84305460078354CC007D1
:1014C00054D0E0690026C00008D4E06940F08050A4
:1014D000E061E069012600F0805000902E4801682C
:1014E000C90512D40168804641F480710160FFF79C
:1014F0003BFF074605E000BFFFF736FFC01B64282F
:1015000023D8D8F80000C005F6D5206A10F4407042
:1015100021D0A98801F4407181421CD0206A1F4962
:10152000012220F440700A6000220A602062C00795
:1015300011D0FFF719FF074641F2883808E000BFD5
:10154000FFF712FFC11B414502D90320BDE8F88314
:10155000206A8007F4D5206A696820F44070084347
:1015600020621EB1E06920F08050E0612878800799
:1015700005D56068A96820F4404008436060287879
:10158000C00605D56068E96820F480000843606003
:101590000020DBE70010024000700040400442429F
:1015A0002DE9F0470F46050061D0434E306800F04A
:1015B0000700B84209D2306820F007003843306095
:1015C000306800F00700B84251D128683B4C8107D1
:1015D00012D5400703D5606840F4E0606060287869
:1015E000000703D5606840F4605060606068A968D7
:1015F00020F0F000084360602878C00728D06868B1
:10160000012810D02168022810D0890700292EDA7D
:10161000616821F0030101436160FFF7A5FE804688
:1016200041F288390DE021688903EFE78901EDE790
:10163000FFF79AFEA0EB0801494502D90320BDE857
:10164000F0876068696800F00C00B0EB810FEFD1A3
:10165000306800F00700B8420BD9306820F007006E
:1016600038433060306800F00700B84201D00120F4
:10167000E5E72878400705D56068E96820F4E06070
:10168000084360602878000706D56068296920F45F
:10169000605040EAC100606000F038F86168084AB4
:1016A000C1F30311515CC840064908600648006850
:1016B000FFF77AFE0020C2E700200240001002403F
:1016C000403400088C0000208400002004480549B4
:1016D00000684968044AC1F30221515CC840704760
:1016E0008C000020001002405034000804480549D6
:1016F00000684968044AC1F3C221515CC840704780
:101700008C000020001002405034000812A185B067
:101710000FC98DE80F0014A0144A006804905168A6
:10172000134801F00C03042B10D0082B0ED1C1F389
:101730008343C9031DF803000AD5516804AAC1F305
:101740004041515C0A4A5043B0FBF1F005B070478C
:1017500008494843FAE700000203040506070809A0
:101760000A0B0C0D0E0F10100102000000100240B9
:1017700000127A0000093D002DE9F84F040070D0F6
:101780002078C04DC00749D06868C0F381000128A7
:1017900007D06868C0F38100022809D16868C003D7
:1017A00006D52868800339D560680028E7D035E081
:1017B0006068B0F5803F0BD010B1B0F5A02F11D00C
:1017C000286820F480302860286820F4802002E017
:1017D000286840F480302860606890B1FFF7C4FD4D
:1017E00006460AE0286840F480202860F0E700BF41
:1017F000FFF7BAFD801B642873D828688003F7D5EB
:101800000CE0FFF7B1FD064605E000BFFFF7ACFDB9
:10181000801B6428F0D828688003F7D420789A4E7B
:1018200080074FF001094FF0000839D5686810F0C3
:101830000C0F07D06868C0F38100022809D16868DE
:10184000C00306D42868800714D52069012808D170
:1018500010E02069B0B1C6F80090FFF785FD07469B
:1018600005E00AE1FFF780FDC01B0228C4D8286804
:101870008007F7D52868616920F0F80040EAC100C8
:1018800028600DE0C6F80080FFF76EFD074604E013
:10189000FFF76AFDC01B022823D828688007F7D409
:1018A000207800072CD57948A169D9B1C0F80090FB
:1018B000FFF75AFD074604E0FFF756FDC01B02285C
:1018C0000FD8686A8007F7D571484FF4FA5100685D
:1018D000B0FBF1F0009000BF0098411E0091FAD2D9
:1018E0000EE080E0C0F80080FFF73EFD074604E010
:1018F000FFF73AFDC01B022875D8686A8007F7D445
:101900002078400760D5E8690027C00008D4E8695E
:1019100040F08050E861E869012700F080500090B5
:101920005C480168C90513D40168834641F480719D
:101930000160FFF719FD824606E000BFFFF714FDC6
:10194000A0EB0A0064284ED8DBF80000C005F5D5EE
:10195000E06801280AD008B1052813D0286A20F0D1
:1019600001002862286A20F0040002E0286A40F0A2
:1019700001002862E06841F2883B98B1FFF7F4FC6F
:1019800082460BE0286A40F004002862EEE700BFC0
:10199000FFF7EAFCA0EB0A0159455AD8286A8007EC
:1019A000F6D50CE0FFF7E0FC824605E0FFF7DCFC33
:1019B000A0EB0A0159454CD8286A8007F6D41FB11C
:1019C000E86920F08050E861E06988B36968C1F394
:1019D0008101022944D00228C6F8608004D0FFF7B4
:1019E000C3FC044638E034E0FFF7BEFC074604E0E1
:1019F000FFF7BAFCC01B02282BD828688001F7D457
:101A0000206AB0F5803F05D16868A16820F40030F5
:101A100008436860D4E908010843696821F4741137
:101A200008436860C6F86090FFF79EFC044606E035
:101A300025E000BFFFF798FC001B022809D82868A2
:101A40008001F7D51BE000BFFFF78EFC001B0228CA
:101A500002D90320BDE8F88F28688001F4D40EE095
:101A60000128F7D06868226A00F48031914204D1DD
:101A7000616A00F47010884201D00120EAE700207A
:101A8000E8E70000001002400000424280044242A9
:101A90008C0000200070004010B5401EB0F1807F27
:101AA00001D3012010BD4FF0E02460610F216017C9
:101AB00001F07EF90020A06107202061002010BD08
:101AC0007047704770B590F83C20012A26D0012459
:101AD00080F83C40022280F83D2003685A689D68E7
:101AE00022F070060A6832435A600D4B02689A422F
:101AF00008D0B2F1804F05D00A4B9A4202D00A4B6F
:101B00009A4204D1496825F080031943916080F816
:101B10003D40002180F83C10084670BD022070BD99
:101B2000002C0140000400400008004010B50400F3
:101B300003D094F83D0010B107E0012010BD002053
:101B400084F83C00204600F01FF8022084F83D0095
:101B5000211D206800F098FE012084F8460084F8DA
:101B60003E0084F83F0084F8400084F8410084F887
:101B7000420084F8430084F8440084F8450084F867
:101B80003D00002010BD000008B51E4A01681E4837
:101B900091420ED1816941F4006181618069002226
:101BA00000F40060009011461B20FFF751FC1B2041
:101BB00022E0164A91420ED1C16941F00201C16191
:101BC000C069002200F00200009011461D20FFF7BE
:101BD0003FFC1D2010E00E4A914211D1C16941F035
:101BE0000401C161C069002200F0040000901146A8
:101BF0001E20FFF72DFC1E20BDE80840FFF71ABC91
:101C000008BD0000002C014000100240000400400C
:101C10000008004090F83D10012901D001207047D4
:101C2000022180F83D1000680B49884208D0B0F1CD
:101C3000804F05D00949884202D00949884204D121
:101C4000816801F00701062903D0016841F0010114
:101C50000160002070470000002C0140000400409B
:101C60000008004090F83D10012901D00120704784
:101C7000022180F83D100168CA6842F00102CA6082
:101C800000680B49884208D0B0F1804F05D009495F
:101C9000884202D00849884204D1816801F00701D6
:101CA000062903D0016841F001010160002070475E
:101CB000002C0140000400400008004070B50446BC
:101CC00090F83C00012817D0012584F83C500220F0
:101CD00084F83D002068826822F0770222F47F4277
:101CE00082600868502830D00DDC20284DD005DCFB
:101CF00098B310283BD148E0022070BD302844D072
:101D0000402834D139E0602828D0702806D0B0F5BA
:101D1000805F2CD0B0F5005F29D10AE0CB68D1E913
:101D20000121206800F0F3FD2068816841F077010F
:101D300009E0CB68D1E90121206800F0E8FD2068C6
:101D4000816841F48041816011E0CA684968206877
:101D500000F092FE5021206807E016E0CA6849684A
:101D6000206800F09AFE6021206800F0DAFD84F817
:101D70003D50002084F83C0070BDCA684968206866
:101D800000F07AFE40212068EFE722680146104605
:101D9000EBE7704770B50446006801694FF0000535
:101DA000C943890715D4C168C943890711D4E91EFD
:101DB000016101202077206880698007204602D0D9
:101DC000FFF7E7FF04E000F0BFF8204600F04EF90F
:101DD000257720680169C943490717D4C168C943F9
:101DE000490713D46FF004010161022020772068B5
:101DF000806910F4407F204602D0FFF7CAFF04E05C
:101E000000F0A2F8204600F031F92577206801693A
:101E1000C943090716D4C168C943090712D46FF032
:101E200008010161042020772068C06980072046EE
:101E300002D0FFF7AEFF04E000F086F8204600F085
:101E400015F9257720680169C943C90617D4C16807
:101E5000C943C90613D46FF010010161082020772F
:101E60002068C06910F4407F204602D0FFF791FF40
:101E700004E000F069F8204600F0F8F825772068C3
:101E80000169C943C90708D1C168C943C90704D159
:101E9000891E0161204600F039F920680169C943B3
:101EA000090609D4C168C943090605D46FF0800149
:101EB00001612046FFF704FE20680169C943490615
:101EC00009D4C168C943490605D46FF040010161D6
:101ED000204600F049F920680169C94389060BD4FE
:101EE000C168C943890607D46FF02001016120460B
:101EF000BDE87040FFF7E5BD70BD000000B585B0DE
:101F00000021009101910291039100680B498842E0
:101F100012D10B48816941F00801816180696946ED
:101F200000F0080004904FF47070009002200190BF
:101F300003900448FFF71EF905B000BD00080040FB
:101F400000100240000C0140704770B5044690F844
:101F50003C000D4601280AD0012084F83C0042B123
:101F6000042A18D0082A2AD00C2A4DD139E00220A0
:101F700070BD206800F0DEFC2068816941F0080136
:101F800081612068816921F0040181612068816993
:101F90002A69114311E0206800F0F4FC206881698F
:101FA00041F4006181612068816921F4806181616F
:101FB000206881692A6941EA0221816124E0206860
:101FC00000F00CFD2068C16941F00801C161206882
:101FD000C16921F00401C1612068C1692A69114306
:101FE00011E0206800F026FD2068C16941F400611D
:101FF000C1612068C16921F48061C1612068C16943
:102000002A6941EA0221C161002084F83C0070BDC8
:1020100010B5040003D094F83D0010B107E0012092
:1020200010BD002084F83C00204600F01EF802207D
:1020300084F83D00211D206800F026FC012084F872
:10204000460084F83E0084F83F0084F8400084F89D
:10205000410084F8420084F8430084F8440084F886
:10206000450084F83D00002010BD70477047000017
:1020700010B50446022249B104290ED0082913D014
:1020800094F84100012816D0012010BD94F83E00BC
:102090000128F9D184F83E200FE094F83F00012890
:1020A000F2D184F83F2008E094F840000128EBD1F9
:1020B00084F8402001E084F841200122206800F0EB
:1020C00019FC0F492068884203D1426C42F4004257
:1020D00042642068884208D0B0F1804F05D0094999
:1020E000884202D00849884204D1816801F0070182
:1020F000062903D0016841F001010160002010BDF4
:10210000002C0140000400400008004070B5144954
:1021100000680968884221D1124C2089401C00B215
:1021200020810A281AD104F17805606AB5F90410F3
:1021300001F072F82066B5F90610A06A01F0BEF849
:102140006066FEF763F90646206EFEF75FF93146DA
:1021500000F062FF0020A880E880208170BD0000B0
:102160000C010020000000207047704770470000FD
:10217000F8B5026804461068D168536910F00F0F73
:102180004FF0000554D003F0010601F49077374377
:102190005FD0C20705D0CA0503D5226C42F0010208
:1021A0002264420705D5DA0703D0226C42F002020E
:1021B0002264820705D5DA0703D0226C42F00402BC
:1021C0002264020707D501F02002324303D0226CBB
:1021D00042F008022264226C002A35D0800604D521
:1021E000880602D5204600F08AFC20684069216CF0
:1021F000C0F3801001F008010143204625D000F013
:1022000066FC2068416949061BD5416921F04001FF
:102210004161A06BA8B158494163A06BFEF700FE75
:10222000002811D0A06B416B01B0BDE8F040084719
:1022300083060ED58B060CD52046BDE8F84000F08D
:102240005EBC2046FFF792FFF8BDFFF78FFF2564C5
:10225000F8BD266B2023012E52D1C60650D5CE06DE
:102260004ED5106850680090506940062AD5A16B81
:10227000086840680004000CEAD0A68D8642E7D9C1
:10228000E0858869202818D0D06820F48070D0605C
:102290002068416921F0010141612068416921F014
:1022A0004001416184F83E3025632068C16821F017
:1022B0001001C160A06BFEF78FFDA08DE18D401A6B
:1022C00081B219E0A08DE18D401A81B2E08D002825
:1022D000BED00029BCD0D06820F49070D0602068B7
:1022E000426922F00102426184F83E302563206891
:1022F000C26822F01002C2602046FFF736FFF8BD28
:1023000005062BD50D0629D594F83D002128F6D1D8
:10231000A068B0F5805F01D12069B0B1206A411C8E
:102320002162216800784860E08C401E0004000CA7
:10233000E084E4D12068C16821F08001C160206898
:10234000C16841F04001C160F8BD206A0088C0F357
:1023500008005060206A801C2062E5E74006F3D543
:102360004806F1D5D168204621F04001D16084F8BB
:102370003D3000F010F9F8BDBF2A000870B5040028
:1023800004D094F83D00002510B106E0012070BD96
:1023900084F83C50204600F023F8242084F83D00C7
:1023A0002068C16821F40051C160204600F002FCA1
:1023B0002068016921F4904101612068416921F0A0
:1023C0002A0141612068C16841F40051C16025645F
:1023D000202084F83D0084F83E00002070BD0000FD
:1023E00070B586B0002400940194029403942E4E9C
:1023F00003682E49022003222D4DB34226D18B695A
:1024000043F480438B618B6903F4804304938B69AD
:1024100043F004038B618969039201F00401049184
:102420000102CDE9001069462846FEF7A3FE2815F3
:10243000CDE90004694628460294FEF79BFE00227F
:1024400011462520FFF704F8252028E0194EB34255
:1024500027D1CB6943F40033CB61CB6903F400335C
:1024600004938B6943F004038B618969039201F043
:10247000040104910421CDE9001069462846FEF7C5
:1024800079FE0820CDE90004694628460294FEF74B
:1024900071FE002211462620FEF7DAFF2620FEF705
:1024A000C9FF06B070BD00000038014000100240B6
:1024B000000801400044004090F83E30202B0ED12F
:1024C00059B152B190F83C30012B08D0012380F86B
:1024D0003C300023036300F0B3BB012070470220AF
:1024E000704770472DE9F843044690F83D001F46B9
:1024F00016460D4620284CD1C5B1BEB194F83C001B
:10250000012846D0012084F83C004FF00008C4F8B0
:102510004080212084F83D00FEF726FFA6848146F6
:10252000E684A068B0F5805F03D004E00120BDE838
:10253000F883206928B12E465FF0000584F83C80BE
:102540000EE00026FAE78021204600F094FBA0B9B7
:10255000AEB116F8010B21684860E08C401EE084A3
:10256000E08C4B464FF0000200970028EBD14FF073
:102570004001204600F07FFB30B10320D7E735F85B
:10258000020BC0F30800E6E7202084F83D0000209D
:10259000CDE70220CBE77047FEE700003EB5002103
:1025A000194800910191174A0291026092158260C8
:1025B0000173017504244FF460220461C26141601B
:1025C000FEF7A4FA0120CDE90040032569460295F3
:1025D0000D48FEF7A7F905200090022001906946FA
:1025E0000948FEF79FF90620CDE90005694606482F
:1025F000FEF798F90720CDE9000469460248FEF786
:1026000091F93EBD002401409400002030B585B012
:10261000002000900190029003902348816941F0CE
:1026200004018161816901F004010491816941F033
:102630000801816180691D4D00F0080004900022AE
:1026400038212846FEF78BFE40F6064000901848D9
:102650000124CDE9010469462846FEF78BFD3820A8
:1026600000900221CDE90141039169462846FEF719
:1026700081FD002211460720FEF7EAFE0720FEF743
:10268000D9FE002211460820FEF7E2FE0820FEF7E0
:10269000D1FE002211462820FEF7DAFE2820FEF7A0
:1026A000C9FE05B030BD000000100240000C014022
:1026B0000000111010B586B0002412480094019457
:1026C0000294039404940E49059401602321C0E907
:1026D00001144FF6FE71C0E9031444618461FFF7F1
:1026E00025FA4FF48050009069460648FFF7E6FA55
:1026F000049404A903480594FFF7E4F906B010BD5B
:10270000002C0140C400002010B586B000241248FF
:10271000009401940294039404940E49059401607A
:1027200040F60F61C0E901146321C0E9031484611C
:10273000FFF7FCF94FF48050009069460648FFF718
:10274000BDFA049404A904480594FFF7BBF906B048
:1027500010BD0000000400400C01002010B58EB038
:1027600000240794089409940A940B941C21684649
:102770000C94FDF7EEFC1E481C4901600521C0E9E0
:10278000011440F2E731C0E903148461FFF7CEF988
:102790004FF48050079007A91548FFF78FFA1448A7
:1027A000FFF736FC0B940BA911480C94FFF78AF93C
:1027B0006020CDE900040294002269460C4804948C
:1027C000FFF7C3FB042269460948FFF7BEFB082256
:1027D00069460748FFF7B9FB0C2269460448FFF732
:1027E000B4FB0348FFF78AFB0EB010BD00080040A1
:1027F00054010020FEE77047704770477047FEF7AE
:10280000B9BD30B593B028216846FDF7A2FC14216C
:102810000AA8FDF79EFC0024022501200F940490D5
:1028200000951020059012944FF4E010CDE9084077
:102830001194109407956846FEF79EFF0F200A90AA
:10284000CDE90B540D9401210AA80E94FEF7A8FEC1
:10285000680311900F950FA8FEF72CFE13B030BD42
:10286000704700000148FFF795BA0000C40000203F
:102870000148FFF78FBA00000C0100200148FFF764
:1028800089BA000054010020F0B50268164B174CBD
:10289000174D4FF08047984205D0B84203D0A04270
:1028A00001D0A84203D122F070064A683243984210
:1028B00005D0B84203D0A04201D0A84203D122F4EF
:1028C0004074CA6822434C6922F0800222430260AD
:1028D0008A68C2620A688262984201D1096901630A
:1028E00001214161F0BD0000002C014000040040C6
:1028F0000008004010B501F01F030121046A99404F
:102900008C430462016A9A401143016210BD10B504
:10291000846842EA032224F47F440A43224382600B
:1029200010BD826822F070020A4342F00701816004
:102930007047000030B5026A22F001020262026AAA
:102940004368846924F073050C682C4322F0020567
:102950008A682A430A4DA8420BD122F00805CA68AA
:1029600023F440732A434D6922F004021D438B690E
:102970002B434360846149684163026230BD0000BB
:10298000002C014030B5026A22F010020262026A95
:10299000436884690D6824F4E64444EA05248D689C
:1029A00022F0200242EA05120B4DA8420ED1CD685A
:1029B00022F0800242EA05124D6923F4406343EAA3
:1029C00085038D6922F0400243EA850343608461F8
:1029D00049688163026230BD002C014030B5026A53
:1029E00022F480720262036A4268C46923F40073AD
:1029F00024F073050C682C438D6843EA05230C4DC5
:102A0000A8420ED1CD6823F4006343EA05234D6943
:102A100022F4405242EA05128D6923F4806342EAAF
:102A200005124260C4614968C163036230BD0000A1
:102A3000002C014030B5026A22F480520262046A1E
:102A40004268C3690D6823F4E64343EA05238D68B1
:102A500024F4005444EA0534064DA84204D14D69DB
:102A600022F4804242EA85124260C36149680164EF
:102A7000046230BD002C014010B5036A046A24F0E2
:102A800001040462846924F0F00444EA021423F08F
:102A90000A020A438461026210BD10B5036A23F082
:102AA000100303628369046A23F4704343EA023229
:102AB00024F0A00343EA01118261016210BD10B548
:102AC000406A0021C185C184FFF750FB10BD016839
:102AD000CA6822F49072CA6001684A6922F0010251
:102AE0004A61016B012904D10168CA6822F0100211
:102AF000CA60202180F83E1000210163704708B5AC
:102B000090F83E10222901D0022008BD82684FF4BF
:102B100080539A4201D1016921B1816A9A421BD046
:102B20004AB10AE00268816A5268C2F308020A8068
:102B3000816A891C08E0026972B10268526802F079
:102B40007F020A70816A491C8162C18D491E090495
:102B5000090CC18503D019E002685268F1E70168E9
:102B6000CA6822F02002CA600168CA6822F4807232
:102B7000CA6001684A6922F001024A61202180F896
:102B80003E10016B012903D0FFF7ABFC002008BD0C
:102B9000002101630168CA6822F01002CA6001685E
:102BA0000A68D20602D50A6849680091818DFFF74C
:102BB000DCFAEBE710B5044600680169E26821F42D
:102BC0004051114301612169A068084361690843CC
:102BD0002168CA6841F20C639A430243CA602068C4
:102BE0004169A26921F44071114341611349206890
:102BF000884202D1FEF77AFD01E0FEF767FD00EBA7
:102C0000C00101EB0010616864228900B0FBF1F1A2
:102C1000B1FBF2F06FF01803434301EB8303322161
:102C200001EB0311B1FBF2F101F0F00202EB001035
:102C300001F00F0108442168886010BD0038014090
:102C400081628285C28500210164222280F83E20B3
:102C500080F83C100168CA6842F48072CA6001685A
:102C60004A6942F001024A610068C16841F02001EE
:102C7000C160002070472DE9F041984617460E4686
:102C80000446069D1DE0681C1BD02DB1FEF76CFBB1
:102C9000A0EB0800A84214D92068C16821F4D071C3
:102CA000C1602068416921F001014161202084F860
:102CB0003D0084F83E00002084F83C000320BDE87D
:102CC000F0812068006836EA000004D00020B84295
:102CD000D9D00020F3E70120F9E7000010B528481B
:102CE000FFF746FA26490A2244312548FFF7E4FB5C
:102CF000234C0020234A6FF02F014434235C412BE6
:102D00000DD0401C0728F9DB0020235C422B16D095
:102D1000401C0728F9DB20784F2820D021E02044F0
:102D20004378312BC3788078A0F1300000EB80002D
:102D300001EB4000184400D040425062E4E72044D8
:102D40004378312BC3788078A0F1300000EB80000D
:102D500001EB4000184400D040429062DBE700F0F5
:102D60004FFB2078462809D100F02AFB05490422B0
:102D7000BDE8104070310448FDF7A8BF10BD000049
:102D80009C0100200000002094000020FEE70000CD
:102D90000FB4054B10B503A9044A029800F028F8B7
:102DA00010BC5DF814FB00005130000890000020BA
:102DB0000907090E002804DB00F1E02080F8001468
:102DC000704700F00F0000F1E02080F8141D7047FC
:102DD00002E008C8121F08C1002AFAD170477047E4
:102DE000002001E001C1121F002AFBD17047000042
:102DF0002DE9FF4F8BB09A460F460446002606E0A9
:102E000025280BD052460D999047641C761C2078DB
:102E10000028F5D10FB03046BDE8F08F0025A94657
:102E200001217C4A00E0054314F8013F203B01FAF0
:102E300003F01042F7D120782E2817D114F8010F93
:102E400045F004052A280ED06FF02F022078A0F15B
:102E5000300109290AD809EB890102EB410100EB95
:102E60000109641CF2E757F8049B641C20786C2865
:102E70000DD004DC4C2812D06A2811D104E074284B
:102E80000DD07A280CD10AE045F4001507E06178EE
:102E900045F48015814202D1641C05F58015641C3F
:102EA000207869283ED006DC0028B3D063280BD0F8
:102EB000642804D136E0732810D075285AD05246C1
:102EC0000D999047761CA3E017F8040B8DF80000CD
:102ED00000208DF80100E846012003E057F8048B3C
:102EE0004FF0FF3069074FF0000501D40AE06D1C78
:102EF0004D450DDA8542FADB18F805100029F6D1A8
:102F000006E06D1C8542FCDB18F805100029F8D19D
:102F10002E4404E018F8010B52460D9990476D1E9F
:102F2000F8D275E000200A90C5F302504FF00A0B6A
:102F300002280AD001CFC11700290CDA0023D0EBF8
:102F4000030063EB01012D2208E0FF1D27F00707B6
:102F5000F7E80201F0E72A0504D52B228DF824209A
:102F6000012203E0EA070FD02022F7E70DF1200845
:102F7000089218E000200A90C5F302504FF00A0BA7
:102F8000022803D001CF00210022EFE7FF1D27F028
:102F90000707F7E80201F7E75A460A9BFDF76BFAC5
:102FA000303208F8012D50EA0102F5D1ADEB0800EE
:102FB00000F1200B680701D44FF00109D94502DD6B
:102FC000A9EB0B0000E000208146002506E009A8DF
:102FD0005246405D0D9990476D1C761C08988542BD
:102FE000F5DB04E0302052460D999047761CB9F18C
:102FF0000001A9F10109F5DC05E018F8010B5246C2
:103000000D999047761CBBF10001ABF1010BF4DC8C
:10301000641CFCE6092801000C4A10B50023146862
:10302000002803DB63631468E06303E040426063ED
:103030001068C3631068002903DB816310680364B0
:1030400010BD836348421168086410BD540100201C
:1030500013B56423012269460248FFF743FA0020B2
:103060001CBD00009C0100202DE9F047FDF7D8FBB6
:10307000002848D0FDF78EFB244C2070FDF78AFB1A
:103080006070FDF787FBA070FDF784FBE070FDF733
:1030900081FB2071217866788846A57831444A19E9
:1030A000E1780A4482422ED10846FDF7A2F9DFF802
:1030B000609000224B46FDF71FF9FDF7C0F9074667
:1030C0002846FDF791F93946FDF74EF81149E062BF
:1030D000FDF7A2F81049FDF7D1F84FF08441FDF754
:1030E00043F820633046FDF784F900224B46FDF794
:1030F00003F9FDF7A4F905464046FDF775F92946A1
:10310000FDF732F86063BDE8F087000000000020A2
:1031100000002440000010410000A04008B5FEF768
:1031200031F9FFF76EFBFFF771FA3048416941F062
:10313000010141614069002200F001000090114648
:103140000B20FEF785F90B20FEF774F9FFF726FA3E
:10315000FFF7B0FAFFF7D8FAFFF700FB254824493C
:10316000002401604FF4E131C0E901140C21C46076
:10317000C0E904418461C461FFF700F91D48D838F3
:10318000FEF748FD1B489038FEF76CFD19490A22EE
:1031900044311848FFF790F9164800214838FEF7E7
:1031A00067FF144804214838FEF762FF11480821E0
:1031B0004838FEF75DFF0F480C214838FEF758FFEE
:1031C00000F0FEF804220C490C48FDF77FFD0A4D83
:1031D000703DE888401CE880FFF746FFB5F906001F
:1031E0000A28F6DD00F0BCF8EC80F2E7001002409F
:1031F000004400409C01002070000020940000204A
:10320000044900220B685A6209684A6A8242FCD368
:1032100070470000C40000202DE9F05F244C0E46EA
:10322000851B65650746216CE069FCF7F5FFA16B1E
:1032300081468A466069FCF7EFFF80462846FDF725
:10324000CAF88346E168FCF7E7FF4146FCF78CFFCC
:103250004946FCF789FF0546206DFDF7BCF8294675
:10326000FCF782FFFDF7D2F82065B0F57A7F02DB2C
:1032700040F2E73003E010F57A7F01DC0D4820656D
:103280000D498A4504DA58465146FCF76DFFA063A4
:10329000B74201D10020A0635846A16CFCF7B6FFED
:1032A000C4F848B02064206DBDE8F05FFDF793B826
:1032B0000000002019FCFFFF0000C8422DE9F05F6C
:1032C000244C0E46851BE5650746616C206AFCF7B9
:1032D000A3FFE16B81468A46A069FCF79DFF80460B
:1032E0002846FDF778F883462169FCF795FF4146AB
:1032F000FCF73AFF4946FCF737FF0546A06DFDF79E
:103300006AF82946FCF730FFFDF780F8A065B0F5B4
:103310007A7F02DB40F2E73003E010F57A7F01DCD0
:103320000D48A0650D498A4504DA58465146FCF718
:103330001BFFE063B74201D10020E0635846E16C17
:10334000FCF764FFC4F84CB06064A06DBDE8F05FAA
:10335000FDF741B80000002019FCFFFF0000C84243
:103360007CB50F4829210E4DB0F90400703D90FB4B
:10337000F1F0C0F16406686BFDF748F80446E86AAE
:10338000FDF744F80346CDE9004605F17800B0F9B1
:103390000020B0F9021003A0FFF7FAFC7CBD00008A
:1033A00070000020256C6420256C6420256C64204E
:1033B000256C6420256C642020656E64000000008C
:1033C0002DE9F0410D4D00244FF4FA6644F26827D0
:1033D000012208212846FDF7C2FF3046FFF710FF03
:1033E000002208212846FDF7BAFF3846FFF708FFFC
:1033F000641C1E2CECDBBDE8F0810000000C0140D9
:103400002DE9F0410D4D00244FF47A7644F25067D7
:10341000012208212846FDF7A2FF3046FFF7F0FE03
:10342000002208212846FDF79AFF3846FFF7E8FEFC
:10343000641C1E2CECDBBDE8F0810000000C014098
:103440000000000000000000010203040607080954
:10345000000000000102030478340008000000208E
:1034600094000000D02D00080C35000894000020C6
:103470009C050000E02D0008000000000000000096
:103480000000000000002841000028416F12833A2C
:103490006F12833A0000204000002040000000002E
:1034A000000000000000000000000000000000001C
:1034B000000000000000000000000000000000000C
:1034C00000000000000000000000000000000000FC
:1034D00000000000000000000000000000000000EC
:1034E00000000000000000000000000000000000DC
:1034F00000000000000000000100000010000000BB
:0C350000000000000024F40000000000A7
:04000005080000ED02
:00000001FF
